:020000040000FA
:060000000A128A110C280F
:10000800FE00030EF4000A08F5000A128A15F22E03
:100018000A128A110F2883120313C901CA01CB01DE
:10002800CC01CD01CE01CF01D001D10183010A124B
:100038008A11052F8312031351080A128A150E27F5
:100048000A128A1183120313B5003508C00051083B
:10005800B5003508BA0050080A128A150E270A1288
:100068008A1183120313B5003508C1005008B50082
:100078003508BB004F080A128A150E270A128A1182
:1000880083120313B5003508C2004F08B5003508C0
:10009800BC004D080A128A150E270A128A1183120B
:1000A8000313B5003508C3004D08B5003508BD0079
:1000B8004C080A128A150E270A128A118312031392
:1000C800B5003508C4004C08B5003508BE004B081B
:1000D8000A128A150E270A128A1183120313B50011
:1000E8003508C5004B08B5003508BF000A128A1547
:1000F800DB260A128A1183120313061B1A2D4903E1
:10010800031D452901300A128A15AF260A128A11E1
:1001180083300A128A15AF260A128A110530831213
:100128000313B5003508A10008300A128A11D22736
:100138000A128A1189300A128A15AF260A128A1100
:10014800831203133A080A128A153D270A128A11E4
:1001580083120313061EF828061AB0280130B500CA
:100168003508C0073C3040060319C001033083122C
:100178000313B7008A30B6005530B500B50BC22856
:10018800B60BC228B70BC22883300A128A15AF26CD
:100198000A128A11053083120313B5003508A1002D
:1001A80008300A128A11D2270A128A1189300A12D3
:1001B8008A15AF260A128A118312031340080A12FD
:1001C8008A1575270A128A1183120313B500350898
:1001D800BA003A080A128A153D270A128A110A1229
:1001E8008A15DB260A128A1183120313861E4529F3
:1001F800861AFC280130C0024008031D07293B303D
:10020800B5003508C000033083120313B7008A30E5
:10021800B6005530B500B50B0F29B60B0F29B70B33
:100228000F2983300A128A15AF260A128A1105305F
:1002380083120313B5003508A10008300A128A1189
:10024800D2270A128A1189300A128A15AF260A1291
:100258008A118312031340080A128A1575270A1295
:100268008A1183120313B5003508BA003A080A1236
:100278008A153D270A128A110A128A15DB260A12E4
:100288008A110230831203134906031D0A2A01301A
:100298000A128A15AF260A128A1183300A128A15A1
:1002A800AF260A128A11053083120313B5003508E8
:1002B800A1000E300A128A11D2270A128A11893037
:1002C8000A128A15AF260A128A11831203133B08F1
:1002D8000A128A153D270A128A1183120313061E71
:1002E800BD29061A75290130B5003508C1073C300B
:1002F80041060319C101033083120313B7008A3082
:10030800B6005530B500B50B8729B60B8729B70B52
:10031800872983300A128A15AF260A128A110530F6
:1003280083120313B5003508A1000E300A128A1192
:10033800D2270A128A1189300A128A15AF260A12A0
:100348008A118312031341080A128A1575270A12A3
:100358008A1183120313B5003508BB003B080A1243
:100368008A153D270A128A110A128A15DB260A12F3
:100378008A1183120313861E0A2A861AC12901309C
:10038800C1024108031DCC293B30B5003508C10026
:10039800033083120313B7008A30B6005530B50016
:1003A800B50BD429B60BD429B70BD42983300A123C
:1003B8008A15AF260A128A11053083120313B50075
:1003C8003508A1000E300A128A11D2270A128A11A2
:1003D80089300A128A15AF260A128A11831203136A
:1003E80041080A128A1575270A128A118312031303
:1003F800B5003508BB003B080A128A153D270A12CA
:100408008A110A128A15DB260A128A11033083120E
:1004180003134906031DCF2A01300A128A15AF2695
:100428000A128A1183300A128A15AF260A128A1113
:10043800053083120313B5003508A10026300A12CF
:100448008A11D2270A128A1189300A128A15AF2610
:100458000A128A11831203133C080A128A153D27CF
:100468000A128A1183120313061E822A061A3A2ACE
:100478000130B5003508C2073C3042060319C201F5
:10048800033083120313B7008A30B6005530B50025
:10049800B50B4C2AB60B4C2AB70B4C2A83300A12E0
:1004A8008A15AF260A128A11053083120313B50084
:1004B8003508A10008300A128A11D2270A128A11B7
:1004C80089300A128A15AF260A128A118312031379
:1004D80042080A128A1575270A128A118312031311
:1004E800B5003508BC003C080A128A153D270A12D7
:1004F8008A110A128A15DB260A128A11831203133B
:10050800861ECF2A861A862A0130C2024208031D97
:10051800912A3B30B5003508C2000330831203131B
:10052800B7008A30B6005530B500B50B992AB60B1E
:10053800992AB70B992A83300A128A15AF260A120C
:100548008A11053083120313B5003508A10008305D
:100558000A128A11D2270A128A1189300A128A15B8
:10056800AF260A128A118312031342080A128A1547
:1005780075270A128A1183120313B5003508BC00C7
:100588003C080A128A153D270A128A110A128A158E
:10059800DB260A128A110430831203134906031D4D
:1005A800942B01300A128A15AF260A128A11833059
:1005B8000A128A15AF260A128A110530831203130C
:1005C800B5003508A10020300A128A11D2270A1274
:1005D8008A1189300A128A15AF260A128A118312E3
:1005E80003133D080A128A153D270A128A1183123D
:1005F8000313061E472B061AFF2A0130B5003508DB
:10060800C307203043060319C301033083120313C1
:10061800B7008A30B6005530B500B50B112BB60BB4
:10062800112BB70B112B83300A128A15AF260A1229
:100638008A11053083120313B5003508A100203054
:100648000A128A11D2270A128A1189300A128A15C7
:10065800AF260A128A118312031343080A128A1555
:1006680075270A128A1183120313B5003508BD00D5
:100678003D080A128A153D270A128A110A128A159C
:10068800DB260A128A1183120313861E942B861AFC
:100698004B2B0130C3024308031D562B1F30B500F6
:1006A8003508C300033083120313B7008A30B6003D
:1006B8005530B500B50B5E2BB60B5E2BB70B5E2B1A
:1006C80083300A128A15AF260A128A11053083125E
:1006D8000313B5003508A10020300A128A11D22769
:1006E8000A128A1189300A128A15AF260A128A114B
:1006F8008312031343080A128A1575270A128A11EE
:1007080083120313B5003508BD003D080A128A1587
:100718003D270A128A110A128A15DB260A128A1143
:100728000530831203134906031D592C01300A12A0
:100738008A15AF260A128A1183300A128A15AF2643
:100748000A128A11053083120313B5003508A10077
:1007580014300A128A11D2270A128A1189300A1211
:100768008A15AF260A128A11831203133E080A1249
:100778008A153D270A128A1183120313061E0C2CB0
:10078800061AC42B0130B5003508C4073C304406AE
:100798000319C401033083120313B7008A30B6006B
:1007A8005530B500B50BD62BB60BD62BB70BD62BC1
:1007B80083300A128A15AF260A128A11053083126D
:1007C8000313B5003508A10008300A128A11D22790
:1007D8000A128A1189300A128A15AF260A128A115A
:1007E8008312031344080A128A1575270A128A11FC
:1007F80083120313B5003508BE003E080A128A1595
:100808003D270A128A110A128A15DB260A128A1152
:1008180083120313861E592C861A102C0130C40229
:100828004408031D1B2C3B30B5003508C4000330B9
:1008380083120313B7008A30B6005530B500B50BE4
:10084800232CB60B232CB70B232C83300A128A15C2
:10085800AF260A128A11053083120313B500350832
:10086800A10008300A128A11D2270A128A11893087
:100878000A128A15AF260A128A1183120313440832
:100888000A128A1575270A128A1183120313B500F2
:100898003508BE003E080A128A153D270A128A1139
:1008A8000A128A15DB260A128A11063083120313EC
:1008B8004906031D7F2801300A128A15AF260A123D
:1008C8008A1183300A128A15AF260A128A11053056
:1008D80083120313B5003508A1001A300A128A11D1
:1008E800D2270A128A1189300A128A15AF260A12EB
:1008F8008A11831203133F080A128A153D270A1228
:100908008A1183120313061ED12C061A892C013072
:10091800B5003508C5073C3045060319C501033045
:1009280083120313B7008A30B6005530B500B50BF3
:100938009B2CB60B9B2CB70B9B2C83300A128A1569
:10094800AF260A128A11053083120313B500350841
:10095800A1001A300A128A11D2270A128A11893084
:100968000A128A15AF260A128A1183120313450840
:100978000A128A1575270A128A1183120313B50001
:100988003508BF003F080A128A153D270A128A1146
:100998000A128A15DB260A128A1183120313861E8D
:1009A8007F28861AD52C0130C5024508031DE02C86
:1009B8003B30B5003508C500033083120313B70078
:1009C8008A30B6005530B500B50BE82CB60BE82CCC
:1009D800B70BE82C83300A128A15AF260A128A113F
:1009E800053083120313B5003508A1001A300A1226
:1009F8008A11D2270A128A1189300A128A15AF265B
:100A08000A128A118312031345080A128A157527D8
:100A18000A128A1183120313B5003508BF003F0874
:100A28000A128A153D270A128A117A280A128A158B
:100A3800DB260A128A1180300A128A15AF260A129A
:100A48008A11063083120313B5003508A10001305E
:100A58000A128A11D2270A128A11C0300A128A157C
:100A6800AF260A128A11053083120313B500350820
:100A7800A10020300A128A11D2270A128A11C7301F
:100A88000A128A15AF260A128A1183120313C901A2
:100A9800083083120313B7009D30B6000530B50047
:100AA800B50B542DB60B542DB70B542D83120313CD
:100AB8004108B5003508AF004208B6003608B00056
:100AC800B101B10A4308B7003708B2004408B800BA
:100AD8003808B3004508B9003908B40040080A12BC
:100AE8008A118026080083120313A70083160313B4
:100AF800111411187D2D831203138C1127089300EC
:100B08008C1D842D8C1183160313111F8F2D111525
:100B1800111D08008C2D83120313250893008C1DCA
:100B2800932D8C1183160313111F9E2D1115111D62
:100B380008009B2D911491189F2D831203138C117B
:100B48002708013E93008C1DA72D8C1183160313D3
:100B5800111FB22D1115111D0800AF2D9115141C70
:100B6800B32D831203131308A6002608D100831699
:100B7800031391121116111ABF2D9115141CC22DB1
:100B8800831203131308A6002608D0008316031344
:100B980091121116111ACE2D9115141CD12D8312F4
:100BA80003131308A6002608CF0083160313911217
:100BB8001116111ADD2D9115141CE02D8312031343
:100BC8001308A6002608CE008316031391121116E7
:100BD800111AEC2D9115141CEF2D83120313130811
:100BE800A6002608CD008316031391121116111AB8
:100BF800FB2D9115141CFE2D831203131308A60058
:100C08002608CC008316031391121116111A0A2E06
:100C18009115141C0D2E831203131308A600260821
:100C2800CB008316031391121116111A192E911560
:100C3800141C1C2E831203131308A6002608CA00CE
:100C48008316031391161116111A282E111511194E
:100C58002B2E88300A128A15AF260A128A1183129F
:100C680003134F080A128A153D270A128A113A30CF
:100C78000A128A159A260A128A1183120313500837
:100C88000A128A153D270A128A113A300A128A1561
:100C98009A260A128A118312031351080A128A1516
:100CA8003D270A128A11C7300A128A15AF260A127E
:100CB8008A11831203134D080A128A153D270A1256
:100CC8008A112F300A128A159A260A128A1183125B
:100CD80003134C080A128A153D270A128A112F306D
:100CE8000A128A159A260A128A11831203134B08CC
:100CF8000A128A153D270800F700831603131114FA
:100D08001118842E831203138C11D03093008C1D7C
:100D18008B2E8C1183160313111F962E1115111D7E
:100D28000800932E8312031393018C1D992E8C11A6
:100D380083160313111FA42E1115111D0800A12ECF
:100D480077080A128A1575270A128A118312031363
:100D580093008C1DAD2E8C112F080A128A15752749
:100D68000A128A118312031393008C1DB92E8C1159
:100D780030080A128A1575270A128A11831203137A
:100D880093008C1DC52E8C1131080A128A157527FF
:100D98000A128A118312031393008C1DD12E8C1111
:100DA80032080A128A1575270A128A118312031348
:100DB80093008C1DDD2E8C1133080A128A157527B5
:100DC8000A128A118312031393008C1DE92E8C11C9
:100DD80034080A128A1575270A128A118312031316
:100DE80093008C1DF52E8C1193018C1DF92E8C11FE
:100DF8008316031311151119FF2E831203138C1177
:100E080008008B170B170B168316031301173130C5
:100E180093002830831203139400FF3083160313C2
:100E280087008801831203138801831603130614AD
:100E38008610061186110616861606170A128A15D6
:100E4800DB260A128A1180300A128A15AF260A1286
:100E58008A11063083120313C6004608A100013028
:100E68000A128A11D2270A128A11C0300A128A1568
:100E7800AF260A128A11053083120313C6004608EA
:100E8800A10020300A128A11D2270A128A110330CF
:100E980083120313C8008A30C7005530C600C60B3A
:100EA800532FC70B532FC80B532F823083120313B2
:100EB800C700DD30C600C60B5F2FC70B5F2F83123C
:100EC8000313A501D0300A128A1177250A128A1154
:100ED8008312031349080319592F0A128A111E2075
:100EE8000A128A11592F83120313A501A11F832FF8
:100EF800A009A109A00A0319A10AA501A50AA31F0F
:100F08008E2FA209A309A20A0319A30A0130F60029
:100F18007608A506A601A701200821040319C52FF4
:100F2800A401A40AA11BA42F01300310A00DA10D38
:100F3800FF3E031D992F0130F6007608A407962F6F
:100F480001300310A60DA70DFF3E031DA52F210894
:100F58002302031DB12F20082202031CBA2F2008E8
:100F6800A2022108031CA303A302261401300310C4
:100F7800A10CA00CFF3E031DBB2F0130A402031DD2
:100F8800A42F25080319CD2FA609A709A60A031916
:100F9800A70A2708A1002608A00008008312031347
:100FA800A400A3012108230203180800230824072A
:100FB80084000A128A1500200A128A110A128A1558
:100FC8009A260A128A11013083120313A2002208FA
:040FD800A307D62F66
:1010000008308A000408840A8207003443344C34D0
:101010004F3443344B343A3400345334453443343E
:101020002E343A3400344D3449344E342E343A346C
:1010300000344D344F344E342E343A340034793445
:10104000653472342E343A340034443441345434E8
:1010500045343A34003468346F34753472343A3479
:0210600000345A
:101CE40083120313A100A001211C7C2E7608F700A7
:101CF4007708A0070310F60D0310A10C2108031D9B
:101D0400762E20080800F20072088312031388005C
:101D14008610061186152130F1007630F000F00BA4
:101D2400912EF10B912E00008312031386110800EB
:101D340083120313A0002008880086140611861558
:101D44002130F7007630F600F60BA62EF70BA62E00
:101D54000000831203138611080083120313A000EA
:101D6400200888008610061186152130F700763089
:101D7400F600F60BBB2EF70BBB2E000083120313E9
:101D84008611080038300A128A1585260A128A1527
:101D940006300A128A1585260A128A150C300A1290
:101DA4008A1585260A128A1501300A128A15852693
:101DB400080038300A128A15AF260A128A1506302E
:101DC4000A128A15AF260A128A150C300A128A15CD
:101DD400AF260A128A1501300A128A15AF260800A6
:101DE4008B1C072F8B100A128A15C4260A128A1517
:101DF400831203134908013EF3007308C900073036
:101E04004906031D072FC901C90A75088A00740E03
:101E14008300FE0E7E0E090083120313A40024081F
:101E2400A2002208A5002508F039A2002208A50076
:101E34002508A20004300310A20CFF3E031D1D2F31
:101E44002208A3002308A5000A30A2002208F600F5
:101E540025080A128A15722683120313A300230885
:101E6400A5000F302405A20025082207A30023089B
:101E7400A5002508080083120313A3002308A1006A
:101E84002108A4002408F039A1002108A400240892
:101E9400A10004300310A10CFF3E031D4C2F2108A8
:101EA400A2002208A40024083038A1002108A400BC
:101EB40024080A128A159A260A128A158312031311
:101EC4002308A1002108A40024080F39A100210837
:101ED400A40024083038A1002108A40024080A1210
:101EE4008A159A26080083120313AE000A30A00054
:101EF4000030A1002E08A800A9012808A200290882
:101F0400A3000A128A1177270A128A15831203136F
:101F14002008AA002A08AB000A30A0000030A10063
:101F24002E08A800A9012808A2002908A3000A1263
:101F34008A15B3270A128A15831203132008AA00EC
:101F44002A08AC002B08A80004300310A80DFF3E9B
:101F5400031DA72F2C082807A9002908AD002D0868
:101F6400080083120313A501A31FBF2FA209A3090D
:101F7400A20A0319A30AA501A50AA11FC62FA00935
:101F8400A109A00A0319A10A200821040319F32FA7
:101F9400A401A40AA11BDA2F01300310A00DA10D86
:101FA400FF3E031DCF2F0130F6007608A407CC2F87
:101FB40021082302031DE02F20082202031CE82F1E
:101FC4002008A2022108031CA303A302013003106A
:101FD400A10CA00CFF3E031DE92F0130A402031D38
:101FE400DA2F25080319FB2FA209A309A20A031952
:0C1FF400A30A2308A1002208A000080096
:02400E00BB3FB6
:00000001FF
