:020000040000FA
:060000000A128A110C280F
:10000800FE00030EF4000A08F5000A128A15C82E2D
:100018000A128A110F2883120313C901CA01CB01DE
:10002800CC01CD01CE01CF01D001D10183010A124B
:100038008A11352F8312031351080A128A150027D3
:100048000A128A1183120313B5003508C00051083B
:10005800B5003508BA0050080A128A1500270A1296
:100068008A1183120313B5003508C1005008B50082
:100078003508BB004F080A128A1500270A128A1190
:1000880083120313B5003508C2004F08B5003508C0
:10009800BC004D080A128A1500270A128A11831219
:1000A8000313B5003508C3004D08B5003508BD0079
:1000B8004C080A128A1500270A128A1183120313A0
:1000C800B5003508C4004C08B5003508BE004B081B
:1000D8000A128A1500270A128A1183120313B5001F
:1000E8003508C5004B08B5003508BF000A128A1547
:1000F800B1260A128A1183120313061B4A2D4903DB
:10010800031D2F2901300A128A1585260A128A1121
:1001180083300A128A1585260A128A11053083123D
:100128000313B5003508A10008300A128A15E42621
:100138000A128A1189300A128A1585260A128A112A
:10014800831203133A080A128A152F270A128A11F2
:10015800033083120313B7008A30B6005530B50058
:10016800B50BB428B60BB428B70BB4288312031305
:10017800061EF428061ABE280130B5003508C00747
:100188003C3040060319C001033083120313B70043
:100198008A30B6005530B500B50BD028B60BD0283C
:1001A800B70BD02889300A128A1585260A128A11B7
:1001B8008312031340080A128A1567270A128A1144
:1001C80083120313B5003508BA003A080A128A15D3
:1001D8002F270A128A110A128A15B1260A128A11C1
:1001E80083120313861E2F29861AF8280130C002AD
:1001F8004008031D03293B30B5003508C000033013
:1002080083120313B7008A30B6005530B500B50B1A
:100218000B29B60B0B29B70B0B2989300A128A1543
:1002280085260A128A118312031340080A128A15B6
:1002380067270A128A1183120313B5003508BA001A
:100248003A080A128A152F270A128A110A128A15E1
:10025800B1260A128A110230831203134906031DBC
:10026800022A01300A128A1585260A128A11833059
:100278000A128A1585260A128A1105308312031379
:10028800B5003508A1000E300A128A15E4260A12B4
:100298008A1189300A128A1585260A128A11831250
:1002A80003133B080A128A152F270A128A110330F2
:1002B80083120313B7008A30B6005530B500B50B6A
:1002C8006329B60B6329B70B632983120313061E30
:1002D800B529061A6D290130B5003508C1073C302B
:1002E80041060319C101033083120313B7008A3092
:1002F800B6005530B500B50B7F29B60B7F29B70B73
:100308007F2983300A128A1585260A128A11053038
:1003180083120313B5003508A1000E300A128A159E
:10032800E4260A128A1189300A128A1585260A12C9
:100338008A118312031341080A128A1567270A12C1
:100348008A1183120313B5003508BB003B080A1253
:100358008A152F270A128A110A128A15B1260A123B
:100368008A1183120313861E022A861AB9290130BC
:10037800C1024108031DC4293B30B5003508C1003E
:10038800033083120313B7008A30B6005530B50026
:10039800B50BCC29B60BCC29B70BCC2983300A1264
:1003A8008A1585260A128A11053083120313B500AF
:1003B8003508A1000E300A128A15E4260A128A119D
:1003C80089300A128A1585260A128A1183120313A4
:1003D80041080A128A1567270A128A118312031321
:1003E800B5003508BB003B080A128A152F270A12E8
:1003F8008A110A128A15B1260A128A110330831249
:1004080003134906031DD52A01300A128A158526C9
:100418000A128A1183300A128A1585260A128A114D
:10042800053083120313B5003508A10026300A12DF
:100438008A15E4260A128A1189300A128A15852635
:100448000A128A11831203133C080A128A152F27ED
:100458000A128A11033083120313B7008A30B600D8
:100468005530B500B50B362AB60B362AB70B362AE7
:1004780083120313061E882A061A402A0130B50083
:100488003508C2073C3042060319C2010330831203
:100498000313B7008A30B6005530B500B50B522AA1
:1004A800B60B522AB70B522A83300A128A158526B0
:1004B8000A128A11053083120313B5003508A1000A
:1004C80008300A128A15E4260A128A1189300A129B
:1004D8008A1585260A128A118312031342080A1202
:1004E8008A1567270A128A1183120313B500350883
:1004F800BC003C080A128A152F270A128A110A1210
:100508008A15B1260A128A1183120313861ED52A68
:10051800861A8C2A0130C2024208031D972A3B30F2
:10052800B5003508C200033083120313B7008A30C0
:10053800B6005530B500B50B9F2AB60B9F2AB70BEE
:100548009F2A83300A128A1585260A128A110530D5
:1005580083120313B5003508A10008300A128A1562
:10056800E4260A128A1189300A128A1585260A1287
:100578008A118312031342080A128A1567270A127E
:100588008A1183120313B5003508BC003C080A120F
:100598008A152F270A128A110A128A15B1260A12F9
:1005A8008A110430831203134906031DA82B013056
:1005B8000A128A1585260A128A1183300A128A15A8
:1005C80085260A128A11053083120313B5003508EF
:1005D800A10020300A128A15E4260A128A118930ED
:1005E8000A128A1585260A128A11831203133D08F6
:1005F8000A128A152F270A128A110330831203134D
:10060800B7008A30B6005530B500B50B092BB60BCC
:10061800092BB70B092B83120313061E5B2B061A33
:10062800132B0130B5003508C307203043060319E2
:10063800C301033083120313B7008A30B600553064
:10064800B500B50B252BB60B252BB70B252B833007
:100658000A128A1585260A128A1105308312031395
:10066800B5003508A10020300A128A15E4260A12BE
:100678008A1189300A128A1585260A128A1183126C
:10068800031343080A128A1567270A128A1183126C
:100698000313B5003508BD003D080A128A152F2737
:1006A8000A128A110A128A15B1260A128A118312AD
:1006B8000313861EA82B861A5F2B0130C30243083A
:1006C800031D6A2B1F30B5003508C30003308312A1
:1006D8000313B7008A30B6005530B500B50B722B3E
:1006E800B60B722BB70B722B83300A128A1585262C
:1006F8000A128A11053083120313B5003508A100C8
:1007080020300A128A15E4260A128A1189300A1240
:100718008A1585260A128A118312031343080A12BE
:100728008A1567270A128A1183120313B500350840
:10073800BD003D080A128A152F270A128A110A12CB
:100748008A15B1260A128A11053083120313490645
:10075800031D7B2C01300A128A1585260A128A117C
:1007680083300A128A1585260A128A1105308312E7
:100778000313B5003508A10014300A128A15E426BF
:100788000A128A1189300A128A1585260A128A11D4
:10079800831203133E080A128A152F270A128A1198
:1007A800033083120313B7008A30B6005530B50002
:1007B800B50BDC2BB60BDC2BB70BDC2B831203132E
:1007C800061E2E2C061AE62B0130B5003508C40784
:1007D8003C3044060319C401033083120313B700E5
:1007E8008A30B6005530B500B50BF82BB60BF82B90
:1007F800B70BF82B83300A128A1585260A128A113C
:10080800053083120313B5003508A10008300A1219
:100818008A15E4260A128A1189300A128A15852651
:100828000A128A118312031344080A128A156727C9
:100838000A128A1183120313B5003508BE003E0858
:100848000A128A152F270A128A110A128A15B12646
:100858000A128A1183120313861E7B2C861A322CE5
:100868000130C4024408031D3D2C3B30B500350857
:10087800C400033083120313B7008A30B600553022
:10088800B500B50B452CB60B452CB70B452C833062
:100898000A128A1585260A128A1105308312031353
:1008A800B5003508A10008300A128A15E4260A1294
:1008B8008A1189300A128A1585260A128A1183122A
:1008C800031344080A128A1567270A128A11831229
:1008D8000313B5003508BE003E080A128A152F27F3
:1008E8000A128A110A128A15B1260A128A110630CA
:1008F800831203134906031D7F2801300A128A1543
:1009080085260A128A1183300A128A1585260A1248
:100918008A11053083120313B5003508A1001A3077
:100928000A128A15E4260A128A1189300A128A15CF
:1009380085260A128A11831203133F080A128A15A0
:100948002F270A128A11033083120313B7008A3043
:10095800B6005530B500B50BAF2CB60BAF2CB70BA6
:10096800AF2C83120313061E012D061AB92C013071
:10097800B5003508C5073C3045060319C5010330E5
:1009880083120313B7008A30B6005530B500B50B93
:10099800CB2CB60BCB2CB70BCB2C83300A128A1579
:1009A80085260A128A11053083120313B50035080B
:1009B800A1001A300A128A15E4260A128A1189300F
:1009C8000A128A1585260A128A118312031345080A
:1009D8000A128A1567270A128A1183120313B500AF
:1009E8003508BF003F080A128A152F270A128A11F4
:1009F8000A128A15B1260A128A1183120313861E57
:100A08007F28861A052D0130C5024508031D102DC3
:100A18003B30B5003508C500033083120313B70017
:100A28008A30B6005530B500B50B182DB60B182D09
:100A3800B70B182D83300A128A1585260A128A11D7
:100A4800053083120313B5003508A1001A300A12C5
:100A58008A15E4260A128A1189300A128A1585260F
:100A68000A128A118312031345080A128A15672786
:100A78000A128A1183120313B5003508BF003F0814
:100A88000A128A152F270A128A117A280A128A1539
:100A9800B1260A128A1180300A128A1585260A128E
:100AA8008A11063083120313B5003508A1000130FE
:100AB8000A128A15E4260A128A11C0300A128A1507
:100AC80085260A128A11053083120313B5003508EA
:100AD800A10020300A128A15E4260A128A11C730AA
:100AE8000A128A1585260A128A1183120313C9016C
:100AF800083083120313B7009D30B6000530B500E7
:100B0800B50B842DB60B842DB70B842D83120313DC
:100B18004108B5003508AF004208B6003608B000F5
:100B2800B101B10A4308B7003708B2004408B80059
:100B38003808B3004508B9003908B40040080A125B
:100B48008A11B026080083120313A7008316031323
:100B580011141118AD2D831203138C11270893005B
:100B68008C1DB42D8C1183160313111FBF2D111565
:100B7800111D0800BC2D83120313250893008C1D3A
:100B8800C32D8C1183160313111FCE2D1115111DA2
:100B98000800CB2D91149118CF2D831203138C11BB
:100BA8002708013E93008C1DD72D8C118316031343
:100BB800111FE22D1115111D0800DF2D9115141CB0
:100BC800E32D831203131308A6002608D100831609
:100BD800031391121116111AEF2D9115141CF22DF1
:100BE800831203131308A6002608D00083160313E4
:100BF80091121116111AFE2D9115141C012E831233
:100C080003131308A6002608CF00831603139112B6
:100C18001116111A0D2E9115141C102E8312031380
:100C28001308A6002608CE00831603139112111686
:100C3800111A1C2E9115141C1F2E8312031313084E
:100C4800A6002608CD008316031391121116111A57
:100C58002B2E9115141C2E2E831203131308A60095
:100C68002608CC008316031391121116111A3A2E76
:100C78009115141C3D2E831203131308A600260891
:100C8800CB008316031391121116111A492E9115D0
:100C9800141C4C2E831203131308A6002608CA003E
:100CA8008316031391161116111A582E11151119BE
:100CB8005B2E88300A128A1585260A128A11831239
:100CC80003134F080A128A152F270A128A113A307D
:100CD8000A128A1570260A128A1183120313500801
:100CE8000A128A152F270A128A113A300A128A150F
:100CF80070260A128A118312031351080A128A15E0
:100D08002F270A128A11C7300A128A1585260A1255
:100D18008A11831203134D080A128A152F270A1203
:100D28008A112F300A128A1570260A128A11831224
:100D380003134C080A128A152F270A128A112F301A
:100D48000A128A1570260A128A11831203134B0895
:100D58000A128A152F270800F700831603131114A7
:100D68001118B42E831203138C11D03093008C1DEC
:100D7800BB2E8C1183160313111FC62E1115111DBE
:100D88000800C32E8312031393018C1DC92E8C11E6
:100D980083160313111FD42E1115111D0800D12E0F
:100DA80077080A128A1567270A128A118312031311
:100DB80093008C1DDD2E8C112F080A128A156727C7
:100DC8000A128A118312031393008C1DE92E8C11C9
:100DD80030080A128A1567270A128A118312031328
:100DE80093008C1DF52E8C1131080A128A1567277D
:100DF8000A128A118312031393008C1D012F8C1180
:100E080032080A128A1567270A128A1183120313F5
:100E180093008C1D0D2F8C1133080A128A15672731
:100E28000A128A118312031393008C1D192F8C1137
:100E380034080A128A1567270A128A1183120313C3
:100E480093008C1D252F8C1193018C1D292F8C113B
:100E580083160313111511192F2F831203138C11E5
:100E680008008B170B170B16831603130117313065
:100E780093002830831203139400FF308316031362
:100E8800870088018312031388018316031306144D
:100E98008610061186110616861606170A128A1576
:100EA800B1260A128A1180300A128A1585260A127A
:100EB8008A11063083120313C6004608A1000130C8
:100EC8000A128A15E4260A128A11C0300A128A15F3
:100ED80085260A128A11053083120313C6004608B4
:100EE800A10020300A128A15E4260A128A1103305A
:100EF80083120313C8008A30C7005530C600C60BDA
:100F0800832FC70B832FC80B832F823083120313C1
:100F1800C700DD30C600C60B8F2FC70B8F2F83127B
:100F28000313A501D0300A128A11A7250A128A11C3
:100F38008312031349080319892F0A128A111E20E4
:100F48000A128A11892F83120313A501A31FB32F35
:100F5800A209A309A20A0319A30AA501A50AA11FA8
:100F6800BA2FA009A109A00A0319A10A200821047F
:100F78000319E72FA401A40AA11BCE2F01300310E7
:100F8800A00DA10DFF3E031DC32F0130F60076080A
:100F9800A407C02F21082302031DD42F20082202F2
:100FA800031CDC2F2008A2022108031CA303A302B0
:100FB80001300310A10CA00CFF3E031DDD2F0130F2
:100FC800A402031DCE2F25080319EF2FA209A30998
:100FD800A20A0319A30A2308A1002208A0000800F6
:1010000008308A000408840A8207003443344C34D0
:101010004F3443344B343A3400345334453443343E
:101020002E343A3400344D3449344E342E343A346C
:1010300000344D344F344E342E343A340034793445
:10104000653472342E343A340034443441345434E8
:1010500045343A34003468346F34753472343A3479
:0210600000345A
:101C900083120313A100A001211C522E7608F70025
:101CA0007708A0070310F60D0310A10C2108031DEF
:101CB0004C2E20080800F2007208831203138800DB
:101CC0008610061186152130F1007630F000F00BF9
:101CD000672EF10B672E0000831203138611080094
:101CE00083120313A00020088800861406118615AD
:101CF0002130F7007630F600F60B7C2EF70B7C2EA9
:101D00000000831203138611080083120313A0003E
:101D1000200888008610061186152130F7007630DD
:101D2000F600F60B912EF70B912E00008312031391
:101D30008611080038300A128A155B260A128A15A5
:101D400006300A128A155B260A128A150C300A120E
:101D50008A155B260A128A1501300A128A155B263B
:101D6000080038300A128A1585260A128A150630AC
:101D70000A128A1585260A128A150C300A128A154B
:101D800085260A128A1501300A128A15852608004E
:101D90008B1CDD2E8B100A128A159A260A128A15C0
:101DA000831203134908013EF3007308C90007308A
:101DB0004906031DDD2EC901C90A75088A00740E83
:101DC0008300FE0E7E0E090083120313A400A301FC
:101DD00021082302031808002308240784000A129C
:101DE0008A1500200A128A150A128A1570260A120C
:101DF0008A15013083120313A2002208A307E82EDC
:101E000083120313A4002408A2002208A5002508B9
:101E1000F039A2002208A5002508A2000430031012
:101E2000A20CFF3E031D0F2F2208A3002308A500CC
:101E30000A30A2002208F60025080A128A15482650
:101E400083120313A3002308A5000F302405A2006A
:101E500025082207A3002308A500250808008312EF
:101E60000313A3002308A1002108A4002408F039CB
:101E7000A1002108A4002408A10004300310A10C33
:101E8000FF3E031D3E2F2108A2002208A4002408C3
:101E90003038A1002108A40024080A128A157026EF
:101EA0000A128A15831203132308A1002108A40033
:101EB00024080F39A1002108A40024083038A1000B
:101EC0002108A40024080A128A157026080083122B
:101ED0000313AE000A30A0000030A1002E08A800B5
:101EE000A9012808A2002908A3000A128A15A5271B
:101EF0000A128A15831203132008AA002A08AB00CD
:101F00000A30A0000030A1002E08A800A90128086E
:101F1000A2002908A3000A128A11A7270A128A150B
:101F2000831203132008AA002A08AC002B08A8007B
:101F300004300310A80DFF3E031D992F2C0828071D
:101F4000A9002908AD002D08080083120313A5017C
:101F5000A11FB12FA009A109A00A0319A10AA50177
:101F6000A50AA31FBC2FA209A309A20A0319A30A49
:101F70000130F6007608A506A601A7012008210475
:101F80000319F32FA401A40AA11BD22F01300310BF
:101F9000A00DA10DFF3E031DC72F0130F6007608EE
:101FA000A407C42F01300310A60DA70DFF3E031D8B
:101FB000D32F21082302031DDF2F20082202031C38
:101FC000E82F2008A2022108031CA303A302261461
:101FD00001300310A10CA00CFF3E031DE92F0130BE
:101FE000A402031DD22F25080319FB2FA609A70958
:101FF000A60A0319A70A2708A1002608A0000800BE
:02400E00BB3FB6
:00000001FF
