:020000040000FA
:060000000A128A110C280F
:10000800FE00030EF4000A08F5000A128A11942F64
:100018000A128A110F28F601F70183120313C2018D
:10002800C301C401C501C601C701C80183010A1281
:100038008A116E2D8312031348080A128A11492760
:100048000A128A11831203134808B0003008B3005B
:1000580047080A128A1149270A128A1183120313C0
:100068004708B0003008B40046080A128A11492728
:100078000A128A1183120313B0003008BE00460822
:10008800B0003008B50045080A128A1149270A123B
:100098008A1183120313B0003008BB004508B00072
:1000A8003008B60044080A128A1149270A128A1130
:1000B80083120313B0003008BC004408B0003008B5
:1000C800B70043080A128A1149270A128A118312B3
:1000D8000313B0003008BD004308B0003008B80072
:1000E8000A128A11AE270A128A11831203134208D0
:1000F8000319152D4203031D402901300A128A15E0
:10010800EA270A128A1183300A128A15EA270A1284
:100118008A11053083120313B0003008A300083099
:100128000A128A1178270A128A1189300A128A1546
:10013800EA270A128A118312031333080A128A1152
:10014800E0260A128A1183120313061EF328061AE0
:10015800AB280130B0003008BE073C303E0603191A
:10016800BE01033083120313B2008A30B100553048
:10017800B000B00BBD28B10BBD28B20BBD28833031
:100188000A128A15EA270A128A1105308312031304
:10019800B0003008A30008300A128A1178270A1222
:1001A8008A1189300A128A15EA270A128A118312DB
:1001B80003133E080A128A11A2260A128A11831210
:1001C8000313B0003008B30033080A128A11E0267E
:1001D8000A128A110A128A11AE270A128A11831288
:1001E8000313861E4029861AF7280130BE023E08EE
:1001F800031D02293B30B0003008BE0003308312D3
:100208000313B2008A30B1005530B000B00B0A2990
:10021800B10B0A29B20B0A2983300A128A15EA2778
:100228000A128A11053083120313B0003008A300A4
:1002380008300A128A1178270A128A1189300A129C
:100248008A15EA270A128A11831203133E080A1232
:100258008A11A2260A128A1183120313B0003008E9
:10026800B30033080A128A11E0260A128A110A1208
:100278008A11AE270A128A1102308312031342062A
:10028800031D052A01300A128A15EA270A128A1163
:1002980083300A128A15EA270A128A110530831256
:1002A8000313B0003008A3000E300A128A11782711
:1002B8000A128A1189300A128A15EA270A128A1143
:1002C8008312031334080A128A11E0260A128A11CB
:1002D80083120313061EB829061A70290130B000CC
:1002E8003008B9073C3039060319B90103308312C5
:1002F8000313B2008A30B1005530B000B00B822928
:10030800B10B8229B20B822983300A128A15EA2797
:100318000A128A11053083120313B0003008A300B3
:100328000E300A128A1178270A128A1189300A12A5
:100338008A15EA270A128A118312031339080A1246
:100348008A11A2260A128A1183120313B0003008F8
:10035800B40034080A128A11E0260A128A110A1215
:100368008A11AE270A128A1183120313861E052AE0
:10037800861ABC290130B9023908031DC7293B3048
:10038800B0003008B900033083120313B2008A307A
:10039800B1005530B000B00BCF29B10BCF29B20B4B
:1003A800CF2983300A128A15EA270A128A110530E2
:1003B80083120313B0003008A3000E300A128A110A
:1003C80078270A128A1189300A128A15EA270A122E
:1003D8008A118312031339080A128A11A2260A12F3
:1003E8008A1183120313B0003008B40034080A12CB
:1003F8008A11E0260A128A110A128A11AE270A12F5
:100408008A110330831203134206031DCA2A0130DE
:100418000A128A15EA270A128A1183300A128A15E3
:10042800EA270A128A11053083120313B000300834
:10043800A30026300A128A1178270A128A118930F5
:100448000A128A15EA270A128A1183120313350839
:100458000A128A11E0260A128A1183120313061E51
:100468007D2A061A352A0130B0003008BA073C3018
:100478003A060319BA01033083120313B2008A3013
:10048800B1005530B000B00B472AB10B472AB20B68
:10049800472A83300A128A15EA270A128A11053078
:1004A80083120313B0003008A30008300A128A111F
:1004B80078270A128A1189300A128A15EA270A123D
:1004C8008A11831203133A080A128A11A2260A1201
:1004D8008A1183120313B0003008B50035080A12D8
:1004E8008A11E0260A128A110A128A11AE270A1204
:1004F8008A1183120313861ECA2A861A812A01309A
:10050800BA023A08031D8C2A3B30B0003008BA0002
:10051800033083120313B2008A30B1005530B000A3
:10052800B00B942AB10B942AB20B942A83300A1286
:100538008A15EA270A128A11053083120313B000BC
:100548003008A30008300A128A1178270A128A1183
:1005580089300A128A15EA270A128A1183120313AC
:100568003A080A128A11A2260A128A118312031360
:10057800B0003008B50035080A128A11E0260A12C0
:100588008A110A128A11AE270A128A1104308312BC
:1005980003134206031D8F2B01300A128A15EA271E
:1005A8000A128A1183300A128A15EA270A128A1156
:1005B800053083120313B0003008A30020300A125C
:1005C8008A1178270A128A1189300A128A15EA27AD
:1005D8000A128A118312031336080A128A11E026B6
:1005E8000A128A1183120313061E422B061AFA2ACC
:1005F8000130B0003008BB0720303B060319BB01AF
:10060800033083120313B2008A30B1005530B000B2
:10061800B00B0C2BB10B0C2BB20B0C2B83300A122A
:100628008A15EA270A128A11053083120313B000CB
:100638003008A30020300A128A1178270A128A117A
:1006480089300A128A15EA270A128A1183120313BB
:100658003B080A128A11A2260A128A11831203136E
:10066800B0003008B60036080A128A11E0260A12CD
:100678008A110A128A11AE270A128A1183120313E9
:10068800861E8F2B861A462B0130BB023B08031DA2
:10069800512B1F30B0003008BB0003308312031306
:1006A800B2008A30B1005530B000B00B592BB10BF5
:1006B800592BB20B592B83300A128A15EA270A12D2
:1006C8008A11053083120313B0003008A3002030CC
:1006D8000A128A1178270A128A1189300A128A1591
:1006E800EA270A128A11831203133B080A128A1195
:1006F800A2260A128A1183120313B0003008B6002A
:1007080036080A128A11E0260A128A110A128A1178
:10071800AE270A128A110530831203134206031DFD
:10072800542C01300A128A15EA270A128A118330DA
:100738000A128A15EA270A128A110530831203134E
:10074800B0003008A30014300A128A1178270A1260
:100758008A1189300A128A15EA270A128A11831225
:10076800031337080A128A11E0260A128A11831223
:100778000313061E072C061ABF2B0130B0003008E1
:10078800BC073C303C060319BC0103308312031339
:10079800B2008A30B1005530B000B00BD12BB10B8C
:1007A800D12BB20BD12B83300A128A15EA270A12F1
:1007B8008A11053083120313B0003008A3000830F3
:1007C8000A128A1178270A128A1189300A128A15A0
:1007D800EA270A128A11831203133C080A128A11A3
:1007E800A2260A128A1183120313B0003008B70038
:1007F80037080A128A11E0260A128A110A128A1187
:10080800AE270A128A1183120313861E542C861AE5
:100818000B2C0130BC023C08031D162C3B30B000E9
:100828003008BC00033083120313B2008A30B100D1
:100838005530B000B00B1E2CB10B1E2CB20B1E2C69
:1008480083300A128A15EA270A128A1105308312A0
:100858000313B0003008A30008300A128A11782761
:100868000A128A1189300A128A15EA270A128A118D
:10087800831203133C080A128A11A2260A128A114B
:1008880083120313B0003008B70037080A128A1120
:10089800E0260A128A110A128A11AE270A128A1150
:1008A8000630831203134206031D792801300A1209
:1008B8008A15EA270A128A1183300A128A15EA274A
:1008C8000A128A11053083120313B0003008A300FE
:1008D8001A300A128A1178270A128A1189300A12E4
:1008E8008A15EA270A128A118312031338080A1292
:1008F8008A11E0260A128A1183120313061ECC2CD1
:10090800061A842C0130B0003008BD073C303D0683
:100918000319BD01033083120313B2008A30B100FA
:100928005530B000B00B962CB10B962CB20B962C10
:1009380083300A128A15EA270A128A1105308312AF
:100948000313B0003008A3001A300A128A1178275E
:100958000A128A1189300A128A15EA270A128A119C
:10096800831203133D080A128A11A2260A128A1159
:1009780083120313B0003008B80038080A128A112D
:10098800E0260A128A110A128A11AE270A128A115F
:1009980083120313861E7928861AD02C0130BD02D3
:1009A8003D08031DDB2C3B30B0003008BD00033090
:1009B80083120313B2008A30B1005530B000B00B77
:1009C800E32CB10BE32CB20BE32C83300A128A150B
:1009D800EA270A128A11053083120313B00030087F
:1009E800A3001A300A128A1178270A128A1189304C
:1009F8000A128A15EA270A128A11831203133D087C
:100A08000A128A11A2260A128A1183120313B0004D
:100A18003008B80038080A128A11E0260A128A112A
:100A280074280A128A11AE270A128A1180300A1213
:100A38008A15EA270A128A11063083120313B000B6
:100A48003008A30001300A128A1178270A128A1185
:100A5800C0300A128A15EA270A128A110530831251
:100A68000313B0003008A30020300A128A11782737
:100A78000A128A11C7300A128A15EA270A128A113D
:100A880083120313C2013308B0003008C8003408C9
:100A9800B0003008C7003508B0003008C600360876
:100AA800B0003008C5003708B0003008C400380866
:100AB800B0003008C300083083120313B2009D3021
:100AC800B1000530B000B00B672DB10B672DB20B2C
:100AD800672D08008B170B170B16831603130117C6
:100AE800FF308700880183120313880183160313DC
:100AF80006148610061186110616861606170A129F
:100B08008A11AE270A128A1180300A128A15EA273A
:100B18000A128A11063083120313BF003F08A3008C
:100B280001300A128A1178270A128A11C0300A1273
:100B38008A15EA270A128A11053083120313BF00A7
:100B48003F08A30020300A128A1178270A128A1156
:100B5800353083120313BF003F08C8002130BF009F
:100B68003F08C500C20188300A128A15EA270A120E
:100B78008A118312031348080A128A11E0260A12FE
:100B88008A11083083120313C1009D30C00005305C
:100B9800BF00BF0BCD2DC00BCD2DC10BCD2DC73048
:100BA8000A128A15EA270A128A11831203134508C2
:100BB8000A128A11E0260A128A11083083120313D6
:100BC800C1009D30C0000530BF00BF0BE92DC00B30
:100BD800E92DC10BE92D8312031342080319B72D20
:100BE8000A128A111E200A128A11B72D83120313C2
:100BF800A601A11F062EA009A109A00A0319A10A8E
:100C0800A601A60AA31F112EA209A309A20A031965
:100C1800A30A0130A4002408A606A701A8012008F9
:100C280021040319482EA501A50AA11B272E01306E
:100C38000310A00DA10DFF3E031D1C2E0130A400C2
:100C48002408A507192E01300310A70DA80DFF3E93
:100C5800031D282E21082302031D342E20082202FA
:100C6800031C3D2E2008A2022108031CA303A30293
:100C7800271401300310A10CA00CFF3E031D3E2ECB
:100C88000130A502031D272E26080319502EA70997
:100C9800A809A70A0319A80A2808A1002708A0007C
:100CA800080083120313A601A31F612EA209A3093A
:100CB800A20A0319A30AA601A60AA11F682EA00961
:100CC800A109A00A0319A10A200821040319952ED5
:100CD800A501A50AA11B7C2E01300310A00DA10DB2
:100CE800FF3E031D712E0130A4002408A5076E2EB7
:100CF80021082302031D822E20082202031C8A2EAB
:100D08002008A2022108031CA303A3020130031038
:100D1800A10CA00CFF3E031D8B2E0130A502031D64
:100D28007C2E260803199D2EA209A309A20A0319DD
:100D3800A30A2308A1002208A000080083120313B5
:100D4800AF000A30A0000030A1002F08A900AA01B6
:100D58002908A2002A08A3000A128A11FA250A12F1
:100D68008A11831203132008AB002B08AC000A3049
:100D7800A0000030A1002F08A900AA012908A2009C
:100D88002A08A3000A128A1155260A128A11831208
:100D980003132008AB002B08AD002C08A900043071
:100DA8000310A90DFF3E031DD42E2D082907AA0004
:100DB8002A08AE002E08080083120313A500250890
:100DC800A3002308A6002608F039A3002308A600DC
:100DD8002608A30004300310A30CFF3E031DEF2ECA
:100DE8002308A4002408A60026083038A3002308F6
:100DF800A60026080A128A11C5270A128A11831228
:100E080003132508A3002308A60026080F39A3000A
:100E18002308A60026083038A3002308A6002608C1
:100E28000A128A11C527080007308A000408840AB4
:100E38008207003443344C344F3443344B343A340F
:100E480000345334453443342E343A3400344D346A
:100E580049344E342E343A3400344D344F344E3401
:100E68002E343A3400347934653472342E343A34BA
:100E7800003444344134543445343A34003468340A
:100E88006F34753472343A34003483120313A60075
:100E98002608A4002408A7002708F039A40024087D
:100EA800A7002708A40004300310A40CFF3E031D6C
:100EB800582F2408A5002508A7000A30A4002408F4
:100EC800A00027080A128A15C22783120313A50057
:100ED8002508A7000F302605A40027082407A50029
:100EE8002508A7002708080083120313A600A501F8
:100EF80023082502031808002508260784000A127B
:100F08008A1118270A128A110A128A11C5270A1289
:100F18008A11013083120313A4002408A5077C2F2B
:100F28008B1CA72F8B100A128A11DC270A128A1130
:100F3800831203134208013EF3007308C20007300E
:100F480042060319C20175088A00740E8300FE0E5A
:100F58007E0E090038300A128A15EA270A128A1109
:100F680006300A128A15EA270A128A110C300A1268
:100F78008A15EA270A128A1101300A128A15EA2705
:100F8800080083120313A2002208880086140611A1
:100F98008615213083120313A1007530A000A00B21
:100FA800D32FA10BD32FD82F831203138611080038
:100FB80038300A128A15D5270A128A1106300A1201
:100FC8008A15D5270A128A110C300A128A15D527D4
:0E0FD8000A128A1101300A128A15D527080064
:101F840083120313A300A201231CCC2F2008A10059
:101F94002108A2070310A00D0310A30C2308031D9E
:101FA400C62F22080800F200720883120313880067
:101FB4008610061186150D30F100FB30F000F00B91
:101FC400E12FF10BE12FE62F831203138611080092
:101FD40083120313A20022088800861006118615B6
:101FE4000D3083120313A100FB30A000A00BF82FC7
:0C1FF400A10BF82F8312031386110800C4
:02400E00BB3FB6
:00000001FF
